:1000000090200020D5080000D1080000D108000091
:1000100000000000000000000000000000000000E0
:10002000000000000000000000000000D1080000F7
:100030000000000000000000D1080000D10800000E
:10004000D1080000D1080000D1080000D10800004C
:10005000E9010000D1080000D1080000D10800002B
:10006000D1080000D1080000D1080000D10800002C
:10007000D10800000000000000000000D1080000CE
:10008000D1080000D1080000D1080000D10800000C
:10009000D10800000000000000000000D1080000AE
:1000A000D1080000D1080000D1080000D1080000EC
:1000B0000000000010B5064C2378002B07D1054B3B
:1000C000002B02D0044800E000BF0123237010BDC4
:1000D0000C000020000000000C0C0000084B10B5C4
:1000E000002B03D00749084800E000BF0748036819
:1000F000002B00D110BD064B002BFBD09847F9E731
:1001000000000000100000200C0C00000C0C00008F
:10011000000000007047000070B5094B00209847B0
:10012000FA21084C89000500A047074B07491860D1
:100130002800A0470522064B1860064B1A6070BDC8
:10014000910600008D0A00000000002040420F00D0
:100150000400002010E000E030B580240021074BAF
:1001600064021A68064B013800D230BD002AFAD06A
:100170005A6099601D682542FCD0F4E70000002019
:1001800010E000E0094B196800290BD1EFF3108053
:10019000074A002805D172B6BFF35F8F0549087082
:1001A000012111701A6801321A607047280000207E
:1001B0002C00002008000020084B1A68013A1A6041
:1001C0001B68002B09D1064B1B78002B05D00122A0
:1001D000044B1A70BFF35F8F62B67047280000208F
:1001E0002C00002008000020002370B501250B4CD6
:1001F000237023780F2B00D970BD29009940084A3D
:100200001069084206D01161064A9B009B58002BDA
:1002100000D09847237801332370EAE74800002094
:10022000001800404C000020014B5878C00970476E
:1002300000180040022310B5044A11780B431370D4
:10024000034B98470028FBD110BDC0460018004062
:1002500029020000402307B5104A052091690B438D
:100260009361002301A90B700D4B98470D4B05209E
:10027000984701230C4A11780B4313700B4B984796
:100280000028FBD102000A4B1A5004304028FBD151
:100290001022084B1A60084B984707BD0004004025
:1002A000A107000019070000001800402902000003
:1002B0004C00002000E100E03502000007B580227C
:1002C00001AB1A700A785A704A789A708A781900C5
:1002D000DA70014B984707BD7508000010230249EA
:1002E000CA681A42FCD070470008004070B5082860
:1002F00006D800F0C1FB0805052E2E120B152600AE
:100300000024200070BD154B1C69FAE7144B154CF6
:100310001B6A9B059B0FDC40F3E7104B5C69F0E721
:100320000E4D00242B689B07EBD50F4B98472B688D
:100330005B0711D520000D4B9847AC68A4B244432D
:10034000DFE70B4B00241B785B07DAD5034BDC6837
:10035000D7E780242402D4E7064CD2E730000020FF
:100360000008004000127A00DD020000BD07000016
:1003700050080040006CDC0270B584780278457843
:10038000012040260540204080240849AD010B6A29
:10039000C001B3432B43A34303430320024004485B
:1003A0001202034013430B6270BDC04600080040B8
:1003B000FFFCFFFFF7B5184F4678BB6919000378BB
:1003C0000193042342790479C5780092012299436C
:1003D0000823807816401040800008439843F600B8
:1003E00006431540A801350038339D4305431440AA
:1003F000E30180202C0084431C43072301990B4018
:1004000006491B0221401943009B1A401303044A6A
:100410000A401A43BA61F7BD00080040FFF8FFFF29
:10042000FFEFFFFFF8B5082806D800F025FB1405FC
:10043000050C0E1A072034001720F8BD0223194AB4
:10044000116A0B4313620020F7E70223154A9169F2
:100450000B439361F7E70223124A118A0B4313827D
:10046000F1E702230F4A918A0B439382EBE70222C2
:1004700000240D4E0B4D33680C4F13433360AA8498
:10048000B847B368EB627368AB62AC84B847336853
:100490009BB2AB84D7E70223054A11780B43137054
:1004A000D1E7C0460008004030000020DD02000017
:1004B00044080040C2231E21F0B5254CDB00254A2C
:1004C000A360536800268B435360012387B003ADBC
:1004D0002B70F0B22900204B01369847252EF8D119
:1004E0001E4BA2691B681E49DB045B0E0A401B04FD
:1004F0001343A3610723002401A8243E0370194B72
:1005000046708670C470067144719847164F042077
:10051000B8476B4668465C709E701C70134B9847DA
:100520000620B847124B9847124B29001C725C7288
:100530009C72DC72062320002B700F4B6E606C7077
:100540002C726C72984720000C4B984707B0F0BD96
:100550000008004000400041A10700002460800026
:10056000FFFF80FFB50300002504000079030000B1
:100570008D05000000040040AD050000510600009C
:10058000014B5878C0097047000C00400823054A09
:1005900091690B4393610123034A13701178194247
:1005A000FCD1704700040040000C0040F8B50C7806
:1005B0004B782402060005000443002B02D0802360
:1005C000DB021C434B7A002B02D080231B031C430D
:1005D0004B68012B12D95D1E1D400222002D06D052
:1005E0001D02802335439B0207E0013552009A42E9
:1005F000FBD380232D0235435B031C430B7A002B76
:1006000002D080239B031C430C4FB8470028FBD12A
:100610000B4B98470B4B1E70B8470028FCD10A4B78
:100620009D601D00B8470028FCD180226B685202F3
:1006300013401C436C60054B9847F8BD81050000D2
:1006400085010000080C0040000C0040B9010000CA
:1006500070B50500094CA0470028FBD1084B98470E
:10066000084B1D70A0470028FCD18023064A5B027E
:1006700051680B435360054B984770BD81050000DE
:1006800085010000040C0040000C0040B90100008E
:10069000F7B50700184EB0470028FBD1174B984715
:1006A000174B1F700193B0470028FCD1154D164B16
:1006B0006868C004C00E98470400019B1F706B68F7
:1006C000DB02DB0F0193114B1F70B0470028FCD1F8
:1006D000AD680F4B9847019B2D022D0C002B08D1C4
:1006E000012D04D9200029000A4B9847040020005E
:1006F000FEBD0135EC40FAE78105000085010000F0
:10070000040C0040000C0040ED020000080C00400A
:10071000B90100008D0A000010B50400064B98478F
:10072000064B074A1C7080235188DB010B43538022
:10073000044B984710BDC04685010000020C0040E4
:10074000000C0040B901000010B504000E4B9847A2
:100750000E4B0F4A1C700F4B0F4C588859880005E0
:10076000114059805988000F214059801100802282
:10077000D2015C881442FCD15A8800020A4002432C
:100780005A80064B984710BD85010000020C0040BE
:10079000FFF0FFFF000C0040FFBFFFFFB9010000AA
:1007A00010B50C78034B240204439847024BA4B2C3
:1007B0005C8010BD49070000000C004010B504002B
:1007C000064B9847064B1C70064B5C88064B24056D
:1007D000240F98472000054B984710BD8501000065
:1007E000020C0040000C0040B9010000910600001E
:1007F000D37830B5002B35D11478802C03D08023EA
:1008000024065B02234302255478AC4306D1947836
:10081000002C24D18024A402234341605478013C5D
:10082000012C01D8124C2340A0248DB2E4052C43A6
:100830001C438462D0240D0C24062C431C43846288
:10084000D478002C0AD15B0303D59378012B0CD10B
:1008500081615378013B012B00D8816030BDC024F9
:10086000E402D9E741600023DEE74161F1E7C046D9
:10087000FFFFFBFF10B503000A004409C109002077
:10088000814202D10449E00140181F210B401E396A
:100890009940024B984710BD00440041F107000009
:1008A0007047000010B5054B9847054B9847054B1E
:1008B0009847054B9847054B984710BDB504000075
:1008C00015010000A108000055020000A108000069
:1008D000FEE700002148224970B5884204D0002379
:1008E000204CCA18A24232D300211F4B1F4A934208
:1008F00031D3FF211E4B1F4A8B43936002220C25EC
:10090000082430261C4B1D485A62C378FC398B439F
:100910001343C370C378AB432343C370184B987B16
:10092000B0430600202030439873987BA8430443CB
:100930009C73987B884302439A738023114A5168C1
:100940000B435360104B9847104B9847FEE7C55830
:1009500004331560C5E702C3C9E7C0460C0C0000AC
:10096000000000200C0000200C0000208C00002063
:100970000000000000ED00E0FC700041005000416C
:100980000048004100400041A50B0000DD090000C7
:100990007921094B9A698A439A61DA693A398A431B
:1009A000DA611A6A05490A401A6202226E215A72F5
:1009B0005A698A435A617047000400400000E8FF0A
:1009C000E02001230449C00002001A4392B201331F
:1009D0004A80252BF8D17047000C0040F7B51B4B1F
:1009E00098471B4B9847802501230022FA270524AE
:1009F00001A9184E4B700B700920174BAD008A707F
:100A0000FF0098477561F5613800144B013C984729
:100A1000002CF8D1124B9847124B5C63124B98474D
:100A2000124B9B691B051B0F022B05D8C023104AD4
:100A30009B0051680B43536004230E4A11690B431A
:100A40001361BFF34F8F30BFFEE7C046A50800001B
:100A50001901000000440041BD02000059010000DE
:100A6000C109000000080040910900000020004179
:100A70000040004100ED00E002B471464908490021
:100A8000095C49008E4402BC7047C04600224308FE
:100A90008B4274D303098B425FD3030A8B4244D346
:100AA000030B8B4228D3030C8B420DD3FF22090288
:100AB00012BA030C8B4202D31212090265D0030B47
:100AC0008B4219D300E0090AC30B8B4201D3CB033D
:100AD000C01A5241830B8B4201D38B03C01A52417F
:100AE000430B8B4201D34B03C01A5241030B8B4281
:100AF00001D30B03C01A5241C30A8B4201D3CB026C
:100B0000C01A5241830A8B4201D38B02C01A524150
:100B1000430A8B4201D34B02C01A5241030A8B4253
:100B200001D30B02C01A5241CDD2C3098B4201D36B
:100B3000CB01C01A524183098B4201D38B01C01AE9
:100B4000524143098B4201D34B01C01A5241030960
:100B50008B4201D30B01C01A5241C3088B4201D30F
:100B6000CB00C01A524183088B4201D38B00C01ABC
:100B7000524143088B4201D34B00C01A5241411AE3
:100B800000D20146524110467047FFE701B50020F0
:100B900000F006F802BDC0460029F7D076E770479E
:100BA0007047C04670B500260C4D0D4C641BA41058
:100BB000A64209D1002600F019F80A4D0A4C641B20
:100BC000A410A64205D170BDB300EB58984701367A
:100BD000EEE7B300EB5898470136F2E7F80B000058
:100BE000F80B0000F80B0000FC0B0000F8B5C04645
:100BF000F8BC08BC9E467047DD000000F8B5C04652
:0C0C0000F8BC08BC9E467047B500000020
:0C0C0C00401F0000080000000100000074
:04000003000008D51C
:00000001FF
