:10000000482000203D0800003908000039080000A1
:1000100000000000000000000000000000000000E0
:10002000000000000000000000000000390800008F
:10003000000000000000000039080000390800003E
:1000400039080000390800003908000039080000AC
:10005000390800003908000039080000390800009C
:10006000390800003908000039080000390800008C
:1000700039080000000000000000000039080000FE
:10008000390800003908000039080000390800006C
:1000900039080000000000000000000039080000DE
:1000A000390800003908000039080000390800004C
:1000B0000000000010B5064C2378002B07D1054B3B
:1000C000002B02D0044800E000BF0123237010BDC4
:1000D0000C00002000000000D40B0000084B10B5FD
:1000E000002B03D00749084800E000BF0748036819
:1000F000002B00D110BD064B002BFBD09847F9E731
:100100000000000010000020D40B0000D40B000001
:10011000000000007047000070B50020084B9847B1
:100120000500084CFA218900A047074B18600749D1
:100130002800A047064B18600522064B1A6070BDC8
:10014000F90500000D0A00000000002040420F00E9
:100150000400002010E000E030B5084B1C68084A9D
:10016000002580214902013807D3002CFBD05460C0
:10017000956013680B42FCD0F5E730BD000000200D
:1001800010E000E00C4B1B68002B06D1EFF310834E
:10019000002B07D00022094B1A70074A136801335D
:1001A0001360704772B6BFF35F8F0022044B1A7062
:1001B0000132024B1A70F0E7280000202C000020CA
:1001C00008000020084B1A68013A1A601B68002BCF
:1001D00009D1064B1B78002B05D00122044B1A7065
:1001E000BFF35F8F62B67047280000202C0000200C
:1001F0000800002000B583B001AB80221A700A7895
:100200005A704A789A708A78DA701900014B9847C8
:1002100003B000BDD907000010B5082803D880003E
:100220001B4B1B589F46002030E01A4B18692DE0ED
:10023000194B1B6A9B059B0F1848D84026E0154BAD
:10024000586923E0134B1B6800209B071ED51249F9
:100250001022CB681A42FCD00E4B1B685B0701D4FE
:100260000F4813E000200F4B98470A4B9B681B0474
:100270001B0C58430AE05023074AD35C00205B075D
:1002800004D5044BD86801E08020000210BDC046B0
:100290006C0B0000300000200008004000127A00C3
:1002A000006CDC02FD06000070B50C490B6A047896
:1002B000857840780122104080014026B3430343F3
:1002C0002A40D2018020834313430322224012029A
:1002D0000348034013430B6270BDC0460008004052
:1002E000FFFCFFFFF0B5CE46474680B5194B994657
:1002F0009B6941788C4605780679C778447980787F
:1003000001210840800004229343034360460840D3
:10031000C000043293430343380008408001402763
:10032000BB43034330000840C0018026B34303436E
:10033000072005402D02084803402B4321400903B4
:10034000064803400B434A4693610CBC90469946CD
:10035000F0BDC04600080040FFF8FFFFFFEFFFFFC1
:10036000082803D88000254B1B589F46172044E0DF
:10037000234A136A02210B43136200203DE0204A06
:10038000936902210B439361002036E01C4A138AD3
:1003900002210B43138200202FE0194A938A022185
:1003A0000B439382002028E016490B680222134376
:1003B0000B60134B9A8419000E32CB681A42FCD0A2
:1003C000104A91680E4BD96252689A6200229A8450
:1003D00019001032CB681A42FCD00A4B1B689BB242
:1003E000074A9384002008E0054944228B5C0220E0
:1003F00003438B54002000E000207047900B000066
:10040000000800403000002070B586B0C222D20043
:10041000254B9A60254A53681E218B435360012364
:100420006A4613700024224DE0B26946A8470134A1
:10043000252CF9D11F4B1B68DB041B498A695B0E15
:100440001B041D48024013438B6104A8012545701D
:1004500085700024C4700571072303704471174B25
:1004600098470420164EB04703A844708570047066
:10047000144B98470620B047134B9847134B1C72F8
:100480005C729C72DC7201956B465C7006236A4656
:10049000137014725472694600200D4B9847002067
:1004A0000C4B984706B070BD00080040004000416A
:1004B000E106000024608000FFFF80FFE5020000ED
:1004C00061030000A9020000D904000000040040FC
:1004D000FD040000B5050000064A936908210B439E
:1004E00093610122044B1A7019000B781342FCD15E
:1004F0007047C04600040040000C004070B5060084
:1005000004000D782D0205434B78002B02D0802388
:10051000DB021D434B7A002B02D080231B031D43BB
:100520004868012810D9431E184234D1022830D916
:100530000223002201325B009842FBD812023243B0
:10054000140080235B031D430B7A002B02D0802311
:100550009B031D43134A53785BB2002BFBDB124B0A
:100560009847124B1E700F4A53785BB2002BFBDB8F
:100570000C4B9C601A0053785BB2002BFBDB094AE2
:100580005368802149020B401D435560084B984732
:1005900070BD0022D2E70402344380239B021D4336
:1005A000D2E7C046000C004085010000080C004066
:1005B000C501000010B504000B4A53785BB2002B54
:1005C000FBDB0A4B98470A4B1C70074A53785BB217
:1005D000002BFBDB044A516880235B020B43536012
:1005E000044B984710BDC046000C00408501000038
:1005F000040C0040C501000070B504001A4A53788D
:100600005BB2002BFBDB194B9847194B1C70164A49
:1006100053785BB2002BFBDB134E7068C004C00E36
:10062000144B98470500124B1C707668F602F60FC3
:10063000114B1C700C4A53785BB2002BFBDB0A4B4E
:100640009C682402240C0D4B9847002E07D1012CE6
:1006500007D9210028000A4B9847050001E0013422
:10066000E540280070BDC046000C00408501000038
:10067000040C004019020000080C0040C5010000F5
:100680000D0A000010B504000F4B98470F4B1C706B
:100690000F4A53881B05180F53880E490B4053808F
:1006A00053880D490B40538011008022D2014B88A2
:1006B0001342FCD106494A8803020648024013430C
:1006C0004B80064B984710BD85010000020C00408E
:1006D000000C0040FFF0FFFFFFBFFFFFC50100005F
:1006E00010B50C7824020443024B9847A4B2024B85
:1006F0005C8010BD85060000000C004010B50400B1
:10070000064B9847064B1C70064B5C882405240F4B
:10071000054B98472000054B984710BD8501000008
:10072000020C0040000C0040C5010000F90500006B
:1007300030B5D378002B35D11378802B29D01B0608
:1007400080246402234354780225AC4306D1947874
:10075000002C20D18024A402234341605478013C22
:10076000012C1CD90D042D0CA024E4052C431C43A2
:1007700084620D0CD02424062C431C438462D4785C
:10078000002C22D15B031CD59378012B1ED0416134
:1007900017E00023D7E7C024E4022343DDE70D4C34
:1007A0002340DFE741600C04240CA023DB05234336
:1007B00083620C0CD0231B0623438362D378002B67
:1007C00003D15378013B012B02D930BD8161F8E799
:1007D0008160FAE7FFFFFBFF10B50A00C1090023A3
:1007E000002904D14309DB0105498C4663441F24D9
:1007F0002040012181401800024B984710BDC0469F
:1008000000440041310700007047000010B5054B5F
:100810009847054B9847054B9847054B9847054B1C
:10082000984710BD090400001501000009080000E8
:100830000908000009080000FEE70000F8B52A4A90
:100840002A4B9A4211D01A00294B9A420DD2294ABA
:1008500003339B1A9B0801339B0000222348224943
:100860008C58845004329A42FAD1234A234B9A423C
:100870000AD2D34321495B1803218B4304339B18CD
:10088000002102C29342FCD11D4AFF211D4B8B4324
:100890009360FD3990235B001B4AD1501B4AD378EB
:1008A0000325AB4302242343D370D3780C27BB43E7
:1008B00008263343D370164B987B30229043202276
:1008C00010439873997BB943314399739A7BAA4338
:1008D00022439A730F4A536880210B4353600E4B97
:1008E00098470E4B9847FEE7D40B0000000000200D
:1008F0000C000020040000200C0000204800002014
:1009000000ED00E0000000000070004100500041D8
:100910000048004100400041250B00006D09000027
:10092000094B9A6979218A439A61DA693A398A438B
:10093000DA611A6A05490A401A6202225A725A6931
:100940006E218A435A617047000400400000E8FFAE
:100950000123E020C000044902001A4392B24A80F9
:100960000133252BF8D17047000C0040F0B583B05F
:100970001B4B98471B4B984701A901234B70002242
:100980008A700B700920184B984780229200174BF1
:100990005A6105241E001700154DF761FA20C000AA
:1009A000A847013C002CF8D1124B98470022124B6B
:1009B0005A63124B9847124B9B691B051B0F022B66
:1009C00005D8104A5168C0239B000B4353600E4A60
:1009D000136904210B431361BFF34F8F30BFFEE750
:1009E0000D08000019010000F5010000004400415D
:1009F00059010000510900000008004021090000D1
:100A0000002000410040004100ED00E000224308CA
:100A10008B4274D303098B425FD3030A8B4244D3C6
:100A2000030B8B4228D3030C8B420DD3FF22090208
:100A300012BA030C8B4202D31212090265D0030BC7
:100A40008B4219D300E0090AC30B8B4201D3CB03BD
:100A5000C01A5241830B8B4201D38B03C01A5241FF
:100A6000430B8B4201D34B03C01A5241030B8B4201
:100A700001D30B03C01A5241C30A8B4201D3CB02EC
:100A8000C01A5241830A8B4201D38B02C01A5241D1
:100A9000430A8B4201D34B02C01A5241030A8B42D4
:100AA00001D30B02C01A5241CDD2C3098B4201D3EC
:100AB000CB01C01A524183098B4201D38B01C01A6A
:100AC000524143098B4201D34B01C01A52410309E1
:100AD0008B4201D30B01C01A5241C3088B4201D390
:100AE000CB00C01A524183088B4201D38B00C01A3D
:100AF000524143088B4201D34B00C01A5241411A64
:100B000000D20146524110467047FFE701B5002070
:100B100000F006F802BDC0460029F7D076E770471E
:100B20007047C04670B500260C4D0D4C641BA410D8
:100B3000A64209D1002600F03DF80A4D0A4C641B7C
:100B4000A410A64205D170BDB300EB5898470136FA
:100B5000EEE7B300EB5898470136F2E7C00B000010
:100B6000C00B0000C00B0000C40B00002A020000F4
:100B70002602000026020000880200008802000011
:100B80003E02000030020000440200007602000035
:100B90008C0300006C0300006C030000F8030000ED
:100BA0007E0300009A03000070030000A803000009
:100BB000E8030000F8B5C046F8BC08BC9E46704784
:100BC000DD000000F8B5C046F8BC08BC9E46704782
:040BD000B50000006C
:0C0BD400401F00000800000001000000AD
:040000030000083DB4
:00000001FF
