:10000000008000206D020000510200006902000023
:1000100000000000000000000000000000000000E0
:10002000000000000000000000000000510200007D
:100030000000000000000000510200000903000061
:100040005102000051020000510200005102000064
:100050001505000051020000510200005502000089
:100060005102000051020000510200005102000044
:100070005102000051020000510200005102000034
:100080005102000051020000510200005102000024
:100090005102000051020000510200005102000014
:1000A0005102000051020000510200005102000004
:1000B0000000000010B5064C2378002B07D1054B3B
:1000C000002B02D0044800E000BF0123237010BDC4
:1000D00060010020000000001C20000008B5084B53
:1000E000002B03D00748084900E000BF0748036819
:1000F000002B03D0064B002B00D0984708BDC0460C
:10010000000000001C2000006401002050010020BD
:1001100000000000044B02211A780A431A705A7832
:10012000D209FCD17047C04600180040044B0221A0
:100130001A788A431A705A78D209FCD17047C0469F
:100140000018004008B5FFF7F1FFFFF7E3FF08BD17
:1001500008B50620012100F0E7FA0420022100F092
:10016000E3FA0420011C00F0DFFA04200249002217
:1001700000F044F908BDC0464501000010B5062056
:10018000002100F0D5FA03240121062000F0D0FA66
:10019000FA20400000F0C6F80620002100F0C8FA5E
:1001A000FA204000013C00F0BDF8002CECD1134BCC
:1001B00003225A70124B04211A690A431A61114B27
:1001C00003211A688A431A60BFF34F8F30BF07229A
:1001D0001A600D4B04241B690121062000F0A8FAC7
:1001E000642000F09FF80620002100F0A1FA013CF5
:1001F000642000F097F8002CEED1E0E70004004006
:1002000000ED00E010E000E00018004008B50849EB
:10021000084800F0F5FB0849084800F0F1FB0849E0
:10022000084800F0EDFB0848084900F0E9FB08BD6C
:100230000008004280010020000C004284010020E0
:1002400000100042880100207C01002000140042C0
:10025000FEE7000008B5034B1B68002B00D0984751
:1002600008BDC0468C0100200DBEFEE770B51E49DA
:100270001E4CA14222D11E4B02225A621D4B032169
:10028000D8780C2488431043D870DD780820A54323
:100290000543DD70184B30269D7BB5432026354342
:1002A0009D739D7BA54328439873987B88430243A5
:1002B0009A7300F05DF800F065FB0BE00F4D8D4286
:1002C000D9D00023CA18E818A24204D20068043327
:1002D0001060F7E7FEE79042CDD0094B094A934200
:1002E000C9D2002204C3F9E7000000206001002009
:1002F000FC700041005000410048004120200000F7
:10030000600100202008002008B500F026F8002831
:1003100001D100F017F808BD014B18607047C046C6
:100320008C01002070B5041E08D0054B1D681E1CF2
:1003300000F012F833685B1BA342F9D370BDC046CE
:100340009001002008B5034B1A6801321A6000F0D2
:1003500047FB08BD90010020704700207047000057
:10036000024B5B785BB2002BFADB7047000C00405D
:10037000F8B5194B194F1A4E3B6073681E22934310
:1003800002221343174C7360A36908221343164DCE
:10039000A36101232B702B78DA0704D5124B5B780D
:1003A0005BB2002BF7DB114B114A196A0A401A6243
:1003B0000323AB60FFF7D4FF0E4B6B60FFF7D0FF5A
:1003C0000D4B80223B60002323726372A372E372A1
:1003D000736813437360F8BD006CDC025C0000209E
:1003E0000040004100040040000C004000080040B4
:1003F000FFFCFFFF0306010000127A00F7B50C2393
:1004000043430192394A0A25D3185D57071C0091CE
:10041000681C6AD0102D68D0354B1C68002C2CD17C
:10042000211C4422334801F05EFC211C4422324846
:1004300001F059FC314B324910221C60CA67314B24
:10044000C02149005A50C12189005858FF24A043B7
:1004500058501A602C4B2D4A5A805A7852B2002AB2
:10046000FBDB2B4B02211A780A431A705A78D20907
:10047000012AFBD01E4B01221A60254E012473690C
:10048000AC4023437361381C042100F09FF900281D
:100490002BD1009F002F26D018490A689446154A90
:1004A0008300604504D0D758A74203D00130F6E757
:1004B00001300860D450009F0F4AD7500123072D08
:1004C00000DC00231248DA009B00AD1A1B18AD00B7
:1004D0009A690721A940019F8A430521C91BA940A8
:1004E0000D1C15439D613461F460F7BD201E0000B2
:1004F00020020020D8010020940100201C020020CE
:1005000004E100E000E100E0000C004005400000D4
:1005100000180040F8B50024094B1B689C420DD21E
:10052000084E094FA5003369EA591A4204D0074B17
:10053000EB589847EB5933610134EDE7F8BDC046FD
:100540001C02002000180040D80100209401002067
:100550003E4BFA21186810B5890001F03BFB3C4B7B
:10056000013898421CD83B4A3B4B5060186AC02166
:100570000002000A09060143196200240721946061
:100580001160196A80220902090A12060A431A62D6
:10059000324B196A1A6A0A4331490A431A6200E067
:1005A000FEE7201C1221013400F0BEF8202CF8D107
:1005B0001F20002100F0B8F82A4B2B4A1B68116855
:1005C0005801FF229B06C90E02405B0F1B020A4323
:1005D0001A43264B1A855A7ED209012AFBD0244C95
:1005E000244A6280627852B2002AFBDBE422D20005
:1005F0009A805A7ED209012AFBD01C4A3F21D17031
:100600005A7ED209012AFBD0C021184A4901116142
:100610005A7ED209012AFBD0144A002191705A7ED9
:10062000D209012AFBD0052000F02AF863785BB2DA
:10063000002BFBDB104A0E4B5A80104BDA79D209A3
:10064000012AFAD041225A7010BDC0465C00002039
:10065000FFFFFF0010E000E000ED00E000040040BC
:100660003C3F050024608000206080000040004284
:10067000000C00401E4000002140000000480042E5
:1006800038B5051C264C637EDB09012BFAD0032DFF
:1006900001D0042D06D1281C072100F097F800286E
:1006A0000ED03BE0052D0BD12269F0231B0513432F
:1006B000236163780F22934302221343637009E09E
:1006C0002269184B1340236162780F231D409A431F
:1006D00015436570627E124BD209012AFAD01A784E
:1006E00002210A431A70627E0D4BD209012AFAD008
:1006F0001A7B02210A431A73637EDB09012BFBD0AC
:10070000217E0122064B1142FAD01A761A78022174
:100710008A431A70637EDB09012BFBD038BDC046CB
:1007200000400042FFFFFFF008B500F04FF808BDA1
:100730000C225043214BF0B51A18C35C5468527810
:10074000DB011F4DD01840191E4D00785E59002561
:10075000C0B2AE4203D0012595406E1EB541194F7F
:10076000EEB2DD192F690025AF4203D00125954077
:100770006F1EBD41002E12D1012909D1002D02D0DA
:10078000610702D406E0250704D50421084301E0EF
:10079000042188430A4FD318DB1918700CE0012993
:1007A00005D191400A1C07495B189A6104E0064D87
:1007B000012191405B195960F0BDC046201E000028
:1007C000404400410044004110440041F0B51F285E
:1007D00000D9C6E00C234343634EF3185F68DD780D
:1007E0009B781A1C113A012A02D98B4200D0B8E03A
:1007F0003A1CCA40D40702D4122B00D0B1E00C2915
:100800000BD80B291ED205291AD003D8002204299F
:1008100023D021E0072913D91EE00F291AD005D8CB
:100820000D2913D006220E2917D015E0112900D169
:1008300097E00822112910D34A1C00D191E00BE067
:1008400001220AE0AA07D20F043206E001222A4060
:10085000023202E0072200E0FF220C235843345CFE
:1008600030184026437837420FD172B6122975D816
:10087000081C01F0A5F92C462C2C545454547373C5
:1008800073545454545454732100CE4001200640F4
:10089000EBD136480778002FE7D006703448C67988
:1008A000F609012EFAD006780227BE430670C679F3
:1008B000F609012EFBD0D8E72E4DE4016419E218A9
:1008C00040320221117001229A40A26146E0294E75
:1008D000E401A0190122C618403602259A40426060
:1008E00035700E1CAE4303D18261002936D002E080
:1008F000214821184A6021491C19641806232370D5
:100900002CE002226E0700D542221A48E401241886
:10091000E11840310A7001229A40A2601EE00121D4
:10092000E40158080B420AD0124D641920183030E7
:10093000067815010F2232402A43D2B208E00D4E4C
:100940000F25A4192018303006782A40AE433243D0
:10095000E318027040331A781143197062B6002010
:1009600001E001204042F0BD201E000024020020D2
:10097000004800420044004110440041404400410E
:100980007047000010B5FFF7E3FD01F073F9FFF7C2
:10099000F7FF0120FFF7C6FC084C201C00F054FABA
:1009A000201C00F0CBFAFFF7D3FBFFF7E7FB044B6B
:1009B000002BFAD000E000BFF7E7C046D7060020C2
:1009C00000000000014B18607047C0466000002026
:1009D000024B012252421A607047C046600000205C
:1009E000054A08B51368591C05D0013B1360002B5C
:1009F00001D1024B984708BD600000200100002093
:100A00000160704710B507230F220240141C000933
:100A10003034092A00DD0734CC54013BF4D210BD38
:100A200070B5C2B219495301CB189E68184DC02445
:100A30002E40A40526439E60164E8001096830189A
:100A4000083258605201505C0726B04301263043FB
:100A500050549E6935402C439C610F4C5C61505C46
:100A60007024A0431024204350549C680B488A18DB
:100A70002040802464032043986098684021800BC4
:100A80008003986053790B43537170BDE0060020DA
:100A9000FFFFFF8FF804002034030020FF3F00F029
:100AA00038B5041C08CC01211A78051C0A431A70B9
:100AB0008022201C0021520001F015F92B689A7841
:100AC000D107FCD45C6238BD134BF0B51B689903A9
:100AD0005A029B01C90ED20E5B0F1F2900D10521BE
:100AE0001F2A00D11D22072B00D1032304688E0189
:100AF000278D0A491F2539403143218501682A4045
:100B00000C8DAC4322430A8502681903108D044BF7
:100B100003400B431385F0BD246080003FF8FFFFC6
:100B2000FF8FFFFFEFF3108303600123436072B672
:100B300070470368002B02D162B6BFF36F8F704716
:100B400037B50569041C6846002D12D1FFF7EAFF8E
:100B5000019B013B03D3621DD57FEDB2F9E76846E7
:100B60000193FFF7E6FF0020854217D0206AE36972
:100B700013E0FFF7D7FF019B0025013B04D3221CA4
:100B800034321578EDB2F8E768460193FFF7D1FFEC
:100B90000020854202D0206BE36AC01A3EBD0000EF
:100BA000436810B51A68037A01215B01D318FF333B
:100BB0009A7A0A439A72037A42685B01D318C26830
:100BC0009C6891040B4A090922400A439A60037AFF
:100BD00042685B01D3189A684021920B92039A6095
:100BE00043681A68037A08335B01D3181A790A43F9
:100BF0001A7110BDFF3F00F0F7B50569041C0E1C0B
:100C0000171C6846002D1FD1FFF78CFF019B013B8D
:100C10005A1C06D0621DD17F5A1E00293AD0131CDF
:100C2000F6E768460193FFF784FF0025E369BD42BC
:100C300035D0226A934232D25A1CE261A269D3189B
:100C40001B7873550135F1E7FFF76CFF019B013B02
:100C50005A1C08D0221C343215785A1EEDB2002DD1
:100C600018D0131CF4E768460193FFF762FF0025D4
:100C7000E36ABD4226D0226B934241D322E0621D3B
:100C80000021D17730321678581E8E4214D1031CC1
:100C90005A1CF4D168460193FFF74BFF38E0226AF3
:100CA000934235D10023E361012323616846FFF7B6
:100CB00039FF019B013BEBE71170201C0193FFF70B
:100CC0006FFFF6E7226B934222D10023E362236198
:100CD0006846FFF727FF019B013B5A1CDAD0221C14
:100CE00034320021117001321678581E8E4201D123
:100CF000031CF2E71170201C0193FFF751FFEAE794
:100D00005A1CE262A26AD3181B7873550135AFE70B
:100D1000281CFEBD37B54368027A1B6808325201B1
:100D20009A18041CD0790123FF21184255D0D371A1
:100D3000A068656962680140002D1FD14901521801
:100D400091688904890C2162216A002942D063617B
:100D5000A36A68465360FFF7E5FE019B013B5D1CFB
:100D600034D0621D0120D0772F3211785D1EC9B2B8
:100D70001218002915D111702B1CF0E74B01D31864
:100D80009A689204920C2263226B002A22D00022DD
:100D90006261A26968465A60FFF7C4FE019B013B8D
:100DA00012E0019310706846FFF7C3FE15E0221CA5
:100DB000343201201070621DD17F5D1EC9B2303205
:100DC0000029EED111702B1C5D1CF0D168460193F7
:100DD000FFF7AFFE201CFFF7E3FE37BD37B500235A
:100DE0006C46E3710734201C0D1C00F02FFE2B68AD
:100DF0001818286000F0D2FE211C00F089FE2B6834
:100E00001818286020783EBD03290BD10D4BB22263
:100E10001B685200985C8021494201439954022189
:100E200068220CE001290CD1064B92221B6852006B
:100E3000985C802149420143995402212822FF32C3
:100E400099547047E006002038B5314B0024012149
:100E5000051C1F201C70FFF767FC1F200121FFF7F6
:100E600067FC2C4B1E2001211C70FFF75DFC1E202F
:100E70000121FFF75DFC284B2021DA6901200A439C
:100E8000DA61264B06241A7802431A70244B0F228B
:100E900019789143197019782143197021490C78F8
:100EA0002043087019780A401A701A7860210A43A2
:100EB0001A701D4B1D4A5A805A7852B2002AFBDB29
:100EC0001B48FFF729FA1B4C201CFFF7E9FD201CEB
:100ED000FFF7FAFD23687F2219780A401A701A7802
:100EE00004210A431A701A890C218A431A81C121EC
:100EF000114A890050580002000A505080211160A8
:100F00001A7802210A431A7001232B7038BDC0469B
:100F1000F4040020DC060020000400405844004196
:100F20003C44004159440041000C00400640000090
:100F300099190000E006002000E100E00078002898
:100F400010D0094B01211B681A898A431A811A8B18
:100F500008210A431A831A8B04210A431A83034B7C
:100F600000221A607047C046E0060020E407002017
:100F70000F4B9A69920B92039A611B680222FF330E
:100F80001A7298798022524202439A711A7A900713
:100F9000FCD5084B081C997A7F22104091430143ED
:100FA0009972997A802252420A439A727047C046D7
:100FB000E00600200050004110B50B790C1C002BFE
:100FC0000BD1081C00F050FD002804D1094B9A6990
:100FD000920B92039A6101200BE000F0DFFD211CCF
:100FE00000F0CAFD0028F6D1024B9A69920B9203D9
:100FF0009A6110BDE0060020F8B50D1C832A16D1B9
:10100000CAB242495301CB189C694148AD01204006
:10101000C024A405204398613E48083245195D610B
:101020000B685201D15C70208143402065E0022AA8
:1010300045D1382000F0C0FC374B344F8026036088
:1010400076000023421D036203614361C361476070
:101050008560C660D3772F32041CC36203631370AC
:10106000301C537000F02CFEA061301C00F028FEF4
:10107000FF232A1C1A405201A062BF18B968244AF3
:1010800007260A40C02189050A43BA60A168626840
:101090001940126808314901885CAD00B04303264D
:1010A00030438854A16862680B405B01A169D31882
:1010B0005960201CFFF774FD184BEC5025E0822A84
:1010C0001ED1CAB211495301CB189C691048AD0119
:1010D0002040C024A405204398610E4808324519D9
:1010E0005D610B68520199180C79802040422043C1
:1010F0000871D15C7020814330200143D15404E059
:10110000002A02D1081CFFF78BFCF8BDE006002086
:10111000FFFFFF8F34030020A81F0000B806002047
:1011200038B5051C0124064BA200D258002A06D06F
:10113000211C281C0134FFF75FFFE4B2F3E738BD40
:101140006400002008B5084B8A00D058002803D05E
:1011500003689B68984706E0C9B2044B49015918D7
:1011600088688004800C08BDB8060020E0060020D6
:1011700010B50C1CFFF7E6FF00280CD0064BE1B2BF
:101180001B680831490159184A7980235B4213438F
:101190004B710223CB7110BDE006002070B5CAB2BE
:1011A000134B1448540189015918031959609D685B
:1011B0001149083229408025AD0229439960996878
:1011C0004026890B890399600368510159180D79EC
:1011D00035430D715101591889794D06FAD55101E0
:1011E0005918C979CD07FAD50419A068C0B270BDE5
:1011F000F8040020E0060020FF3F00F038B50C4B5B
:10120000141C1B680D1CFF335A7940210A435A7184
:101210000021FFF7C3FFA04200D9201C0023A342F6
:1012200004D0044A9A5CEA540133F8E738BDC0465A
:10123000E0060020F804002010B5C9B20C484901AE
:1012400043189A689204920C3F2A08D9141C9A6891
:10125000403CA404920BA40C9203224302E09A683F
:10126000920B92039A6041188868C0B210BDC046C4
:10127000E0060020F0B51C1C2F4B85B01B68061C37
:101280000D1C0292002B51D02C4F3978C9B2002985
:1012900002D11E20FFF74CFA64233B70284BAA00B2
:1012A000D058002805D0036802995B68221C984733
:1012B00040E0301C291CFFF745FFA04204D2301C3F
:1012C000291CFFF73FFF041C291C301CFFF7B4FF4B
:1012D0001C4FE9B24A010191396803928B18FF3320
:1012E0005A7A01210A4318495A72AB01C918029867
:1012F000221C00F0EFFC002C1BD0301C291CFFF737
:1013000021FF002815D1019B3A6808335B01D318EF
:1013100019794020014319710121D971039953189A
:10132000FF339A7A01210A439A7202E00120404277
:1013300000E0201C05B0F0BDE4070020DC06002022
:10134000B8060020E0060020F804002013B56C4623
:101350000734221C0123FFF78DFF012801D12078DB
:1013600001E00120404216BDF0B51C1C3F4B85B08A
:101370001B680E1C0292002B6AD08023DB019C426A
:1013800066D83B4D2978C9B2002902D11F20FFF74A
:10139000CFF9642300222B700092002C56D0354DDB
:1013A000F7B22B6801933B1C0833019A5B01D318F9
:1013B0009B79DB091AD0304B3049186800F00AFCE1
:1013C0002F4B1721584300F005FC3B1C0833019AB2
:1013D0005B01D318DB799A0708D42A4B9A5D002A5F
:1013E00038D1421E002835D0101CEEE7254B0022D4
:1013F0009A55251E3F2D00D93F25234AB301D31806
:10140000181C02992A1C039300F064FC194A7B0102
:10141000D318039AA9045A619A69890C920B920312
:101420000A439A613B1C019A08335B01D3180222DC
:10143000DA715979802252420A435A71009B029A0A
:101440005B1952190093641B0292A6E700980BE007
:10145000012008E001229A557B01ED18AB69101CB0
:101460009B0B9B03AB61404205B0F0BDE40700203D
:10147000F4040020E00600205C00002040420F0041
:10148000701101002A0300203403002070B50E4DB6
:101490001C1C8B01ED18281C0E1C111C221C00F0BA
:1014A00019FCF6B20949760189194D618A69084B20
:1014B000201C13408B618B69A2049B0B920C9B0335
:1014C00013438B6170BDC04634030020E00600204A
:1014D000FF3F00F0F7B5114B01901B780F1C141C57
:1014E000002B19D10E4B1E78002E01D1151C08E0DF
:1014F0000C4D0D482E888019361900F0EBFB2E801C
:101500000AE0002D08D0BA192B1C01980021FFF722
:10151000BDFF36182D1AF4E7201CFEBDD6060020AC
:10152000D40600202803002027020020F8B50E1C56
:1015300000AF151E012D28D9D31DDB08DB006A463C
:10154000D21A9546081C00F03DFC01306C46400064
:101550000323207063700222AA420ED23378002B3C
:101560000BD0511CC9B20136A354A94204D00023A8
:1015700002326354D2B2EFE72A1C0548211CFFF760
:10158000A9FF431E9841C0B200E00020BD46F8BD4F
:10159000D706002008B5044B00221A70034B0449FB
:1015A0001A88FFF797FF08BDD40600202803002003
:1015B00027020020F0B5204A87B0012300260091C1
:1015C00002A91370051C0296FFF708FC03AC09275B
:1015D00001903A1C201C311C00F085FB0223637033
:1015E000A023E371FA232372029B0122DB1963809B
:1015F000019B62712371104A009B27701670BB42D9
:1016000005D1281C211C1A1CFFF764FF11E00B4BAD
:1016100001221A700A4B211C3A1C281C1E800296BB
:10162000FFF758FF281C02A9FFF7D8FB281CFFF77B
:10163000B1FF012007B0F0BDD6060020D40600207F
:101640002803002070B5CE7892B0051C0C1C022E29
:1016500008D1C9882D48FFF7ADFF031C581E8341F0
:10166000D8B251E000F09AFA211C00F066FA002886
:1016700003D0C3171B1AD80F46E0012E04D1E2880D
:101680002349112A3BD837E0032E3DD1A278002A06
:1016900005D12049E2880B7893422DD82FE0022A09
:1016A00003D1A279281C1C4904E0012A05D1A279A2
:1016B0001A49281CFFF73AFF26E0032A24D1184BC9
:1016C00001A91868FFF79EF9164B03A91868FFF7E0
:1016D00099F9154B05A91868FFF794F9134B07A959
:1016E0001868FFF78FF900F059FA09A900F035FAE8
:1016F000A279281C01A9DDE7D2B2002A00D10A781C
:10170000281CFFF7E7FE012012B070BDD7060020AD
:10171000CC1F0000C81F0000DE1F0000B81F000023
:101720000CA0800040A0800044A0800048A0800061
:1017300073B5051C48780C1C0B2878D800F040FACB
:10174000081C7728773E4306474B686F00206FE000
:10175000097801AA002903D111705170281C09E0F1
:10176000002313705370334B1B78012B00D113707F
:10177000281C002102234FE08A780023012A04D18B
:1017800001AA137053702C4BEEE72A4A137049E0FC
:101790008E78012E07D1284B01AA00211E701170EE
:1017A000281C331C38E0002E08D1224A0123137074
:1017B000224A9169890B8903916138E0A178281C3C
:1017C000FFF7D6FB33E0281CFFF73CFF30E0281C76
:1017D00000211B4A1FE00A780020D30628D1281CCC
:1017E000FFF79EFCA2781549154B02241A600A687F
:1017F0002A23FF33D05C2043D0544A20FF30145CAE
:1018000001231C4314548A69920B92038A610EE0EF
:101810000C4A281C00210123FFF738FE07E08A78D4
:10182000084B1A60054B9A69920B92039A6101204A
:1018300076BDC04626020020D5060020E006002026
:10184000E4070020D8060020F8B54B4B071C1C7895
:10185000002C00D08EE0494D2868838B19070DD5E8
:10186000201CFFF7DDF82B6810201A1CFF32917A3C
:1018700001439172424A146008229A832B689A8B22
:1018800050071FD504229A833E4B1A78002A0AD0AB
:101890001A78013AD2B21A701B78002B03D11F209C
:1018A0000121FEF745FF384B1A78002A0AD01A7832
:1018B000013AD2B21A701B78002B03D11E200121ED
:1018C000FEF736FF2B68FF331A7AD10626D5102291
:1018D0001A725A7940210A432C495A710A786023B6
:1018E000381C1A4202D1FFF723FF01E0FFF764FB27
:1018F000002806D02B688022FF33997952420A4390
:1019000001E0234B20229A712B68FF331A7A50068C
:1019100004D540221A72597A0A435A722968FE2362
:101920000E8C00241E40E1B2002E23D0321C012375
:1019300022411A4216D0221C28680832520182180D
:10194000D079184203D1D279DA401A4207D0114B2C
:10195000A200D058002809D003681B6898470123CB
:10196000A3409E430134092CDDD103E0381CFFF76E
:101970004BFAF4E7F8BDC046D4060020E00600208C
:10198000E4070020F4040020DC060020F804002016
:10199000FF500041B806002008B50248FFF754FF89
:1019A00008BDC046D7060020014A024B1A607047A6
:1019B00000500041E006002008B500F081F908BDA4
:1019C0003F20704713B502686B46D97107335468DE
:1019D000191C0122A04716BD08B500690221FFF7B6
:1019E000B1FB08BD08B500690321FFF7C1FB08BDC5
:1019F00038B50D1C041C131C006903212A1CFFF7B9
:101A0000B3FC002801D10123636038BD10B5054C3B
:101A100023685A1C04D103685B6998472060031C43
:101A2000181C10BDD4000020074A08B51368591CC3
:101A300004D0012149421160181C03E00069022111
:101A4000FFF784FC08BDC046D400002008B5037829
:101A50000349023303703A220248FFF73BFD08BDF9
:101A600098000020D706002010B50178031C4278AA
:101A70000020A12908D1212A2FD11848184907226E
:101A8000FFF728FD012028E0212926D1202A05D1B1
:101A9000134907221148FFF7B1FB04E0222A10D1B5
:101AA0009A780F4BDA710E4B96221968D200914248
:101AB00010D1DC7901231C400CD1FA20FEF782FF03
:101AC0000AE0232A09D1DA789B7812021A43054BDF
:101AD0001A6002E0FEF77CFF002010BDD706002050
:101AE0008C00002094000020064BFA2189009960A8
:101AF000054900220831196004495A6019611A76B3
:101B00007047C046E8070020F01F0000D7060020FD
:101B100070B544680E1C0025002C09D02368201CD9
:101B20005B68311C9847002804DB2D18E468F3E754
:101B3000281C01E00120404270BD38B544680D1CEE
:101B4000002C08D02368201C9B68291C984700287B
:101B500002D1E468F4E7201C38BD38B544680D1C98
:101B6000002C07D02368201C291CDB689847E468F8
:101B70002D18F5E72C7038BD38B544680D1C002CC5
:101B800008D02368201C1B68291C9847002803D113
:101B9000E468F4E7201C00E0012038BD064B012278
:101BA000196810B51140054805D1022404700424B9
:101BB000447041601A6010BD0C0800200408002029
:101BC00002B4714649084900095C49008E4402BCD0
:101BD0007047C046002934D00123002210B4884247
:101BE0002CD301242407A14204D2814202D209014C
:101BF0001B01F8E7E400A14204D2814202D249006D
:101C00005B00F8E7884201D3401A1A434C08A0420F
:101C100002D3001B5C0822438C08A04202D3001BA5
:101C20009C082243CC08A04202D3001BDC082243BC
:101C3000002803D01B0901D00909E3E7101C10BCE0
:101C40007047002801D00020C04307B4024802A119
:101C50004018029003BDC046190000000029F0D0D2
:101C600003B5FFF7B9FF0EBC4243891A1847C046B7
:101C70007047C04670B50E4B0E4D0024ED1AAD10E6
:101C80001E1CAC4204D0A300F35898470134F8E777
:101C900000F0BAF8084B094D0024ED1AAD101E1CD7
:101CA000AC4204D0A300F35898470134F8E770BD64
:101CB0003C0100203C0100203C0100204C010020A0
:101CC00008B5034B011C186800F016F808BDC046A3
:101CD0003801002010B50023934203D0CC5CC454DB
:101CE0000133F9E710BD031C8218934202D019702A
:101CF0000133FAE77047000070B50323CD1C9D4304
:101D00000835061C0C2D01D20C2501E0002D3FDB0F
:101D10008D423DD3204B1C681A1C211C002913D076
:101D20000868431B0DD40B2B02D90B60CC181EE0A6
:101D30008C4202D1636813601AE0486860600C1C32
:101D400016E00C1C4968E9E7144C2068002803D110
:101D5000301C00F025F82060301C291C00F020F811
:101D6000431C15D0C41C03239C4384420AD1256024
:101D7000201C0B300722231D9043C31A0BD05A425C
:101D8000E25008E0211A301C00F00AF80130EED1D0
:101D90000C233360002070BD1408002010080020C0
:101DA00038B5074C0023051C081C236000F012F80E
:101DB000431C03D12368002B00D02B6038BDC046E4
:101DC0001C0800200023C25C0133002AFBD1581EEE
:101DD00070470000094A1368002B0CD01818694698
:101DE000884202D81060181C7047054B0C22012055
:101DF0001A604042F8E7034B1360EFE71808002031
:101E00001C08002020080020F8B5C046F8BC08BC1B
:101E10009E467047F8B5C046F8BC08BC9E46704761
:101E2000000011040F000000FFFFFFFF000111047C
:101E30000F000000FFFFFFFF000211046F00000011
:101E4000FF00FFFF00031104AF000000FF01FFFFD0
:101E500000041104BF000000FF0404FF000511048A
:101E60003F000000FF0505FF000611042F180000C9
:101E70001006FFFF000711042F5800001107FFFF95
:101E8000000811053F780000001010FF000911053F
:101E90003F780000011109FF000A11062F780000A9
:101EA0000212FFFF000B11062F7800000313FFFF43
:101EB000FF00FF0000000000FFFFFFFFFF00FF002A
:101EC00000000000FFFFFFFF000E11041F3800009C
:101ED00038FF0EFF000F11040F38000039FFFFFF1D
:101EE000001011041F38000020FF00FF0011110432
:101EF0001F38000021FF01FF001211051F20000004
:101F0000FFFF02FF001311051F600000FFFF03FF2A
:101F1000FF00FF0000000000FFFFFFFFFF00FF00C9
:101F200000000000FFFFFFFF001611041F38000033
:101F300048FF06FF001711041F78000049FF07FF44
:101F4000001811040F58000058FFFFFF001911047A
:101F50000F58000059FFFFFFFF00FF0000000000C6
:101F6000FFFFFFFF001B11041F000000FFFF0FFF1A
:101F7000001C11041F000000FFFF08FFFF00FF000E
:101F800000000000FFFFFFFF001E11051F200000E2
:101F9000FFFF0AFF001F11051F200000FFFF0BFFBE
:101FA0000000000000000000150D0000F90B00000B
:101FB000410B0000000000004D61747461697254AF
:101FC000656368204C4C43000403090412011001AE
:101FD00002000040D01657050001010203014D54D4
:101FE0002D44323145205265762042000000000029
:101FF0000000000000000000C5190000F1190000F9
:10200000C1190000E5190000D9190000291A0000C3
:102010000D1A000000000000430000000000000056
:1020200072B6104A104B04329A4207D8BFF34F8F52
:102030000E4A0F4BDA60BFF34F8F11E00D4B197D45
:10204000C807FBD5188B2021FF31920852000143AD
:102050001983DA61084A1A801A7DD107FCD5E5E7B1
:10206000C046FDE700000000030200000400FA057E
:1020700000ED00E00040004102A5FFFF40420F00DC
:10208000FFFFFFFF000000008300000002000000CF
:1020900082000000000000000000000000000000BE
:1020A00000000000000000000000000000C201006D
:1020B00000000800FFFFFFFF09040000010202000A
:1020C0000005240010010424020605240600010571
:1020D0002401010107058103100010090401000219
:1020E0000A000000070502024000000705830240C5
:1020F00000000000FFFFFFFF0000000000000000E4
:1021000000000000000000000000000000000000CF
:102110000000000000000000182000000000000087
:1021200000000000000000000000000000000000AF
:10213000000000000000000000000000000000009F
:10214000000000000000000000000000000000008F
:102150000000000000000000D8000020DD000000AA
:102160000D020000A9190000E91A0000B5000000E6
:10217000000000000000000000000000000000005F
:040000030000026D8A
�  9  )  -                              1          5  �  �L#x +�K +�H � �##p�`       �  �K +�HI � �Hh +�K + ИG��F    �  d   \       � I K
x *�Jxx�ҲpJ@ �a
x2Ҳ
px�*�Jx@B��pxx��Jxx�B�Hxd� ,�x,�F$ �$pxRBҲpxx�Ҳp
xx�B�K@"�a��F|           D A   p�h��!�2B&Ѐ ���r#Sp@!K�qPq^hM� .@�C^`^i5@(CXaH`Ha]hH(@�%�(CX`Xh��X` #Qq#q�z��  �4� yp��  �����     �? � #qCqK`�`x"CppG�F9  �#K !�i"H
C�a �/�!H �,� J!KZ� �_� K!x
Cp�x���J!hP@�B � �!@) �!�R* �"�CC�x"
@px!H
CpXb�!�C��!�C� !�" �_���F  @    @    @ P A$`� �  ��J_��Xi'@ @03�@��"Yh
CZ`	�/{�AK��8" �#��H5BaRi����
CZaYiJ
@Zak�"�qYy�"RB
CZqk��y��� ���    �? ���N3x +�KJdZl��ZdXlJ@Zd�#[ �\@ C�T#3pH'�7�]#@�KZl���B�\l��"I ���#�U #3p � ��}   �  �   �? ��0�y " ) �"C�qpG  K�0Zi��Za#r�y�#[BC�qz���pG�F�  �#[BCɲ�rpGp��#"[ �TKJ\l�!@�CF%\d�5@$DUM0&d�%m FU]k@)C�%Ycm �!AU	Mc�%m DU\o"@Zg�#[ �Tp��F�  �����   X  K�h���pG�F  @��)K�!Zh(O
CZ`Zh!�C!
CZ`�i"C#N�a#3p3x�� K[x[� +��L�"�� %�C������Kh�#��� C�bK�b�#[ ��������"C�������` ���Ks` ���"jK@#b#�` ���
Ks` ���J
K`=r}r�r�r�� @ A  @  @  @$`� ��
|  ����  l�   ���
���������JHp��B�JK�B,�
�L�B�� #��B���X3
`��K"ZbK!�x$�CC�p�x �CC�pK0&�{�C &5C�s�{�C(C�s�{�CC�s ���B�� !�����    `   �  `   �  �p A P A H AK�B
�KB�aJ�}���0�0��pG�F��  @ A���� (�
LK%#�+}��� #� �Y3�Q+ЃB��N&�,}��՜ 	�����F @ AD������p�CЄ�Ke�M�c@3x"Cpk�03
@x� !�@�Cp��x�@
CҲpp��F D AK�hK�B�"BC #�B�3��pG    l�K[x[� +��pG  @��(M(N*h2�� +�&J&Lx"@�#`
�"h#K�B�'`�#`!H����'`Jh����#�CK�`[hG����b�K@"�`ZaKJZ`1j�"		

C2b "�`"` �1�K"p�h �GK (�"px +��   �w� �����     � �8 @�  5�s �  D A� �      ~   ����� ����KL#`��� !h��� � P A  p��� ��@ jF#0Sppv#�:xZ  )�(iF #��G�@�p��B��hF�R3��  ���Jhx�I'�7 8rpSx�H�Np�x3��x3�	C3�y�K�Qy�	C��y�I��y�C
�@"zq�O:x�O8xC�H�FbE ��� ܀!I �B �n�	܁* ђ�* ѕ�* �d��#[ �B ��� �X��#� �B �W�K�B �O�R�#�Bi���#� �B"Ј#�BiР#� �B �@� ��b�1�(h����q�;�K�B �/� �1�K�B ��K�B �)�3�kq"�3�
+��"(h�B�
���~I�3�
+��C"(h�B�
���yI�3�
+ ��3�۲+� +�+ ���
�(hҲpI�"�oI ���;�"(h�B�:������
�(hiIҲ�����3� +q��� �����)�"��aI #�(h"��^I "
��P"@\Jp� 0@��( ���x�3[��y *Л ����(h"���"�CNJɲp�!@�1� ) У�� ) џ��) ٛ�x�3[� *� "Zq��!Yq���#�C<KҲp�"
@�2� * Ѐ�� * �|��* �x�x +��3[��y�j�� "3[�q�3[��y_]��@"3[��q�"3[���3[��y�J��"3[�q�3[��y�=�� "3[��q�"3[�q0��F�   �   �   �   �   �       !   �!  !"  �     l  X  \  �   �   �"(h�B�
���I #����� ��%�� !������FL   �K"��h���� ��F  �KlF4h!"���� x��F  �L ����  �B�"hH#�3�\#@�  �Jh#"��T� �  p�L 
���� #�B� h1*����p�  ��L ���� #'4�B
� ,�)"8h��q�$-��3���F  ��G� (�JK`pG�  |  0�
I��	x )*�*� h�*� � � xR ��;��B�!@	)�0%)C �71p 	;���0#px#Kp
 ��p
 �pK2h�h�I	h�h�����0��F�   |  r����J`h���ChGpG�F�  pG  ��L ##`�Kz"��p�M�N+h0i@!�G�K "`�K/`�K`�M�I*h	h�B���Khx�* ���#* �j��N3x +нK�Ih"�h��o��HxS+9ѺI*hh�BٸH2*`��Khh1`�N�B�2` �3`2h h ��3h(h*`�Jh�`�Jp�I�J	h;`�Kh:`�K�Jxh�BҟJ�h h�i�G�F�R+њK�Jhh[i h�G�O+ќK hhp��H+јK!hh���W+ѕJ#hh`��o+� h!�h+�"h�H�!`�����w+�#h�Hh!`��G+цKh��E��Kh���b��Kx + ���xK hh�G��T+�#3psKhh�N+�3x +�oKtIh"�h���� #3p��V+[�;htI�h"����;hrI�h"����;hpM�h)"����;hnI�h
"����;h)�h"����\KiI\N`ZJ #3`0h]`x� +�h3`��PM2h+h�h����+hZI"�h�����ZILJ0``JJhX`x +�HKh2`��;h�hDKh���v�;h�hBI"M�BJX+�h��/�8KIIh�hA�Y+�hGK (� h`�h"h��3�/KBIh�h/�Z+0�%hh &����B�(x1 ��5��$K8Ih"�h��<�#"2@6	01	* �1"�hFT;��;h��h"��'�;h+I�h"��!�Iz#pK "`Kx�B^�K$Ih"�h���V�09ȲK	(�hC`K�A9)5�7:8�x  0  |  8  (  ,  4  �   �  �  �  $  �  �   �  �  �  �  �  �  �  �   �  �  �  �  a9)�W:h
C�,*�h!`�Hp "`Kh2`Kh2`%��F0  4  ,  
X@K@ �Z	H@��pG�F�  � #�B��\�T3�����B�p3��pG #�\3 *��XpG���F����FpG���F����FpG	MattairTech LLC MT-D21E Rev B D21      @�W    q  �  �  �  �  �    v   Nov 22 2017 12:55:54 X

 Y

 Z #

 > 2.0 [Arduino:XYZ]    !B c0�@�P�`�p�)�J�k���������1s2R"�R�B�r�b9��{�Z��Ӝ�����b$C4 �d�t�D�Tj�K�(�	������ō�S6r&0�v�f�V�F[�z��8�����׼��H�X�h�x@a(#8���َ��H�i�
�+��Z�J�z�jqP
3:*���˿���y�X�;���l�|�L�\",<`A�������*��h�I��~�n�^�N>2.Qp���������:�Y�x�����ʱ��-�N�o�� �0� P%@Fpg`������ڳ=���^���"�25BRwbVr�˥����n�O�,�
��4�$��ftGd$TDۧ������_�~��<��&�6��WfvvF4VL�m��/�ș鉊���DXeHx'h���8�(}�\�?����؛����uJTZ7jz�
��*�:.��l�Mͪ����ɍ&|ld\EL�<�,���>�]�|ߛ���ُ��n6~UNt^�.�>��     @B 	C  �2	    $ $ $ $ � �	 
   �@  @    �    i   A       